{
  "_format": "hh-sol-artifact-1",
  "contractName": "JournalReview",
  "sourceName": "contracts/JournalReview.sol",
  "abi": [
    {
      "anonymous": false,
      "inputs": [
        {
          "indexed": true,
          "internalType": "string",
          "name": "mongoId",
          "type": "string"
        },
        {
          "indexed": false,
          "internalType": "uint256",
          "name": "tokenAmount",
          "type": "uint256"
        }
      ],
      "name": "UserReceivedTokens",
      "type": "event"
    },
    {
      "anonymous": false,
      "inputs": [
        {
          "indexed": true,
          "internalType": "string",
          "name": "mongoId",
          "type": "string"
        },
        {
          "indexed": false,
          "internalType": "uint256",
          "name": "score",
          "type": "uint256"
        },
        {
          "indexed": false,
          "internalType": "uint256",
          "name": "tokenAmount",
          "type": "uint256"
        }
      ],
      "name": "UserReputationUpdated",
      "type": "event"
    },
    {
      "inputs": [
        {
          "internalType": "string",
          "name": "_mongoID",
          "type": "string"
        }
      ],
      "name": "getUserScore",
      "outputs": [
        {
          "internalType": "uint256",
          "name": "",
          "type": "uint256"
        }
      ],
      "stateMutability": "view",
      "type": "function"
    },
    {
      "inputs": [
        {
          "internalType": "string",
          "name": "_mongoID",
          "type": "string"
        }
      ],
      "name": "getUserTokens",
      "outputs": [
        {
          "internalType": "uint256",
          "name": "",
          "type": "uint256"
        }
      ],
      "stateMutability": "view",
      "type": "function"
    },
    {
      "inputs": [
        {
          "internalType": "string",
          "name": "_mongoId",
          "type": "string"
        }
      ],
      "name": "initUserReputation",
      "outputs": [],
      "stateMutability": "nonpayable",
      "type": "function"
    },
    {
      "inputs": [
        {
          "internalType": "string",
          "name": "_mongoId",
          "type": "string"
        }
      ],
      "name": "purchasePremiumContent",
      "outputs": [],
      "stateMutability": "nonpayable",
      "type": "function"
    },
    {
      "inputs": [
        {
          "internalType": "string[]",
          "name": "_mongoIds",
          "type": "string[]"
        },
        {
          "internalType": "string[]",
          "name": "_reviewerComments",
          "type": "string[]"
        },
        {
          "internalType": "string",
          "name": "_associateEditorDecision",
          "type": "string"
        }
      ],
      "name": "updateUserReputation",
      "outputs": [],
      "stateMutability": "nonpayable",
      "type": "function"
    },
    {
      "inputs": [
        {
          "internalType": "string",
          "name": "",
          "type": "string"
        }
      ],
      "name": "userReputationMap",
      "outputs": [
        {
          "internalType": "uint256",
          "name": "score",
          "type": "uint256"
        },
        {
          "internalType": "uint256",
          "name": "tokenAmount",
          "type": "uint256"
        }
      ],
      "stateMutability": "view",
      "type": "function"
    }
  ],
  "bytecode": "0x608060405234801561001057600080fd5b50610d3a806100206000396000f3fe608060405234801561001057600080fd5b50600436106100625760003560e01c80631c6120e814610067578063528a172414610097578063590d57b8146100c85780638afaa830146100e4578063c8db46b614610114578063cfd0687014610130575b600080fd5b610081600480360381019061007c9190610751565b61014c565b60405161008e91906107b3565b60405180910390f35b6100b160048036038101906100ac9190610751565b610176565b6040516100bf9291906107ce565b60405180910390f35b6100e260048036038101906100dd9190610751565b6101b0565b005b6100fe60048036038101906100f99190610751565b6101ff565b60405161010b91906107b3565b60405180910390f35b61012e60048036038101906101299190610751565b610229565b005b61014a600480360381019061014591906108dd565b61022c565b005b6000808260405161015d91906109fe565b9081526020016040518091039020600001549050919050565b6000818051602081018201805184825260208301602085012081835280955050505050506000915090508060000154908060010154905082565b60405180604001604052806000815260200160008152506000826040516101d791906109fe565b9081526020016040518091039020600082015181600001556020820151816001015590505050565b6000808260405161021091906109fe565b9081526020016040518091039020600101549050919050565b50565b73d69c42670211857a1c4de08633fb411c8005698973ffffffffffffffffffffffffffffffffffffffff163373ffffffffffffffffffffffffffffffffffffffff16146102ae576040517f08c379a00000000000000000000000000000000000000000000000000000000081526004016102a590610a98565b60405180910390fd5b60008060005b8451811015610360576040516020016102cc90610b04565b604051602081830303815290604052805190602001208582815181106102f5576102f4610b19565b5b602002602001015160405160200161030d91906109fe565b60405160208183030381529060405280519060200120141561033d576001836103369190610b77565b925061034d565b60018261034a9190610b77565b91505b808061035890610bcd565b9150506102b4565b5060008183116103705781610372565b825b905060008284106103835782610385565b835b9050600081836103959190610b77565b6064846103a29190610c16565b6103ac9190610c9f565b905060005b88518110156105ec576000876040516020016103cd91906109fe565b604051602081830303815290604052805190602001208983815181106103f6576103f5610b19565b5b602002602001015160405160200161040e91906109fe565b604051602081830303815290604052805190602001201490508015610484578260008b848151811061044357610442610b19565b5b602002602001015160405161045891906109fe565b908152602001604051809103902060000160008282546104789190610b77565b925050819055506104e3565b8260646104919190610cd0565b60008b84815181106104a6576104a5610b19565b5b60200260200101516040516104bb91906109fe565b908152602001604051809103902060000160008282546104db9190610b77565b925050819055505b603260008b84815181106104fa576104f9610b19565b5b602002602001015160405161050f91906109fe565b9081526020016040518091039020600101600082825461052f9190610b77565b9250508190555089828151811061054957610548610b19565b5b602002602001015160405161055e91906109fe565b60405180910390207fc0df2098cb1cf98d30ebdf944a4cfb08cff19a236009f2803deebc5e61c2c8ab60008c858151811061059c5761059b610b19565b5b60200260200101516040516105b191906109fe565b9081526020016040518091039020600101546040516105d091906107b3565b60405180910390a25080806105e490610bcd565b9150506103b1565b505050505050505050565b6000604051905090565b600080fd5b600080fd5b600080fd5b600080fd5b6000601f19601f8301169050919050565b7f4e487b7100000000000000000000000000000000000000000000000000000000600052604160045260246000fd5b61065e82610615565b810181811067ffffffffffffffff8211171561067d5761067c610626565b5b80604052505050565b60006106906105f7565b905061069c8282610655565b919050565b600067ffffffffffffffff8211156106bc576106bb610626565b5b6106c582610615565b9050602081019050919050565b82818337600083830152505050565b60006106f46106ef846106a1565b610686565b9050828152602081018484840111156107105761070f610610565b5b61071b8482856106d2565b509392505050565b600082601f8301126107385761073761060b565b5b81356107488482602086016106e1565b91505092915050565b60006020828403121561076757610766610601565b5b600082013567ffffffffffffffff81111561078557610784610606565b5b61079184828501610723565b91505092915050565b6000819050919050565b6107ad8161079a565b82525050565b60006020820190506107c860008301846107a4565b92915050565b60006040820190506107e360008301856107a4565b6107f060208301846107a4565b9392505050565b600067ffffffffffffffff82111561081257610811610626565b5b602082029050602081019050919050565b600080fd5b600061083b610836846107f7565b610686565b9050808382526020820190506020840283018581111561085e5761085d610823565b5b835b818110156108a557803567ffffffffffffffff8111156108835761088261060b565b5b8086016108908982610723565b85526020850194505050602081019050610860565b5050509392505050565b600082601f8301126108c4576108c361060b565b5b81356108d4848260208601610828565b91505092915050565b6000806000606084860312156108f6576108f5610601565b5b600084013567ffffffffffffffff81111561091457610913610606565b5b610920868287016108af565b935050602084013567ffffffffffffffff81111561094157610940610606565b5b61094d868287016108af565b925050604084013567ffffffffffffffff81111561096e5761096d610606565b5b61097a86828701610723565b9150509250925092565b600081519050919050565b600081905092915050565b60005b838110156109b857808201518184015260208101905061099d565b838111156109c7576000848401525b50505050565b60006109d882610984565b6109e2818561098f565b93506109f281856020860161099a565b80840191505092915050565b6000610a0a82846109cd565b915081905092915050565b600082825260208201905092915050565b7f4f6e6c7920746865206173736f636961746520656469746f722063616e20636160008201527f6c6c20746869732066756e6374696f6e2e000000000000000000000000000000602082015250565b6000610a82603183610a15565b9150610a8d82610a26565b604082019050919050565b60006020820190508181036000830152610ab181610a75565b9050919050565b7f5945530000000000000000000000000000000000000000000000000000000000600082015250565b6000610aee60038361098f565b9150610af982610ab8565b600382019050919050565b6000610b0f82610ae1565b9150819050919050565b7f4e487b7100000000000000000000000000000000000000000000000000000000600052603260045260246000fd5b7f4e487b7100000000000000000000000000000000000000000000000000000000600052601160045260246000fd5b6000610b828261079a565b9150610b8d8361079a565b9250827fffffffffffffffffffffffffffffffffffffffffffffffffffffffffffffffff03821115610bc257610bc1610b48565b5b828201905092915050565b6000610bd88261079a565b91507fffffffffffffffffffffffffffffffffffffffffffffffffffffffffffffffff821415610c0b57610c0a610b48565b5b600182019050919050565b6000610c218261079a565b9150610c2c8361079a565b9250817fffffffffffffffffffffffffffffffffffffffffffffffffffffffffffffffff0483118215151615610c6557610c64610b48565b5b828202905092915050565b7f4e487b7100000000000000000000000000000000000000000000000000000000600052601260045260246000fd5b6000610caa8261079a565b9150610cb58361079a565b925082610cc557610cc4610c70565b5b828204905092915050565b6000610cdb8261079a565b9150610ce68361079a565b925082821015610cf957610cf8610b48565b5b82820390509291505056fea26469706673582212205e6866b04d1b89b6c65a32f5f1c2f1204ade38a5dd1eff1ecd787d93adcae8c564736f6c63430008090033",
  "linkReferences": {},
  "deployedLinkReferences": {}
}