{
  "_format": "hh-sol-artifact-1",
  "contractName": "JournalReview",
  "sourceName": "contracts/JournalReview.sol",
  "abi": [
    {
      "anonymous": false,
      "inputs": [
        {
          "indexed": true,
          "internalType": "string",
          "name": "mongoId",
          "type": "string"
        },
        {
          "indexed": false,
          "internalType": "uint256",
          "name": "tokenAmount",
          "type": "uint256"
        }
      ],
      "name": "UserReceivedTokens",
      "type": "event"
    },
    {
      "anonymous": false,
      "inputs": [
        {
          "indexed": true,
          "internalType": "string",
          "name": "mongoId",
          "type": "string"
        },
        {
          "indexed": false,
          "internalType": "uint256",
          "name": "score",
          "type": "uint256"
        },
        {
          "indexed": false,
          "internalType": "uint256",
          "name": "tokenAmount",
          "type": "uint256"
        }
      ],
      "name": "UserReputationUpdated",
      "type": "event"
    },
    {
      "inputs": [
        {
          "internalType": "string",
          "name": "_mongoID",
          "type": "string"
        }
      ],
      "name": "getUserScore",
      "outputs": [
        {
          "internalType": "uint256",
          "name": "",
          "type": "uint256"
        }
      ],
      "stateMutability": "view",
      "type": "function"
    },
    {
      "inputs": [
        {
          "internalType": "string",
          "name": "_mongoID",
          "type": "string"
        }
      ],
      "name": "getUserTokens",
      "outputs": [
        {
          "internalType": "uint256",
          "name": "",
          "type": "uint256"
        }
      ],
      "stateMutability": "view",
      "type": "function"
    },
    {
      "inputs": [
        {
          "internalType": "string",
          "name": "_mongoId",
          "type": "string"
        }
      ],
      "name": "initUserReputation",
      "outputs": [
        {
          "internalType": "bool",
          "name": "",
          "type": "bool"
        }
      ],
      "stateMutability": "nonpayable",
      "type": "function"
    },
    {
      "inputs": [
        {
          "internalType": "string",
          "name": "_mongoId",
          "type": "string"
        }
      ],
      "name": "purchasePremiumContent",
      "outputs": [],
      "stateMutability": "nonpayable",
      "type": "function"
    },
    {
      "inputs": [
        {
          "internalType": "string[]",
          "name": "_mongoIds",
          "type": "string[]"
        },
        {
          "internalType": "string[]",
          "name": "_reviewerComments",
          "type": "string[]"
        },
        {
          "internalType": "string",
          "name": "_associateEditorDecision",
          "type": "string"
        }
      ],
      "name": "updateUserReputation",
      "outputs": [],
      "stateMutability": "nonpayable",
      "type": "function"
    },
    {
      "inputs": [
        {
          "internalType": "string",
          "name": "",
          "type": "string"
        }
      ],
      "name": "userReputationMap",
      "outputs": [
        {
          "internalType": "uint256",
          "name": "score",
          "type": "uint256"
        },
        {
          "internalType": "uint256",
          "name": "tokenAmount",
          "type": "uint256"
        }
      ],
      "stateMutability": "view",
      "type": "function"
    }
  ],
  "bytecode": "0x608060405234801561001057600080fd5b50610dbe806100206000396000f3fe608060405234801561001057600080fd5b50600436106100625760003560e01c80631c6120e814610067578063528a172414610097578063590d57b8146100c85780638afaa830146100f8578063c8db46b614610128578063cfd0687014610144575b600080fd5b610081600480360381019061007c919061079f565b610160565b60405161008e9190610801565b60405180910390f35b6100b160048036038101906100ac919061079f565b61018a565b6040516100bf92919061081c565b60405180910390f35b6100e260048036038101906100dd919061079f565b6101c4565b6040516100ef9190610860565b60405180910390f35b610112600480360381019061010d919061079f565b61024d565b60405161011f9190610801565b60405180910390f35b610142600480360381019061013d919061079f565b610277565b005b61015e60048036038101906101599190610961565b61027a565b005b600080826040516101719190610a82565b9081526020016040518091039020600001549050919050565b6000818051602081018201805184825260208301602085012081835280955050505050506000915090508060000154908060010154905082565b6000806000836040516101d79190610a82565b908152602001604051809103902060000154146101f75760009050610248565b604051806040016040528060008152602001600081525060008360405161021e9190610a82565b90815260200160405180910390206000820151816000015560208201518160010155905050600190505b919050565b6000808260405161025e9190610a82565b9081526020016040518091039020600101549050919050565b50565b731ab250aed28b1c7130458e28c8dadc994cf71b4173ffffffffffffffffffffffffffffffffffffffff163373ffffffffffffffffffffffffffffffffffffffff16146102fc576040517f08c379a00000000000000000000000000000000000000000000000000000000081526004016102f390610b1c565b60405180910390fd5b60008060005b84518110156103ae5760405160200161031a90610b88565b6040516020818303038152906040528051906020012085828151811061034357610342610b9d565b5b602002602001015160405160200161035b9190610a82565b60405160208183030381529060405280519060200120141561038b576001836103849190610bfb565b925061039b565b6001826103989190610bfb565b91505b80806103a690610c51565b915050610302565b5060008183116103be57816103c0565b825b905060008284106103d157826103d3565b835b9050600081836103e39190610bfb565b6064846103f09190610c9a565b6103fa9190610d23565b905060005b885181101561063a5760008760405160200161041b9190610a82565b6040516020818303038152906040528051906020012089838151811061044457610443610b9d565b5b602002602001015160405160200161045c9190610a82565b6040516020818303038152906040528051906020012014905080156104d2578260008b848151811061049157610490610b9d565b5b60200260200101516040516104a69190610a82565b908152602001604051809103902060000160008282546104c69190610bfb565b92505081905550610531565b8260646104df9190610d54565b60008b84815181106104f4576104f3610b9d565b5b60200260200101516040516105099190610a82565b908152602001604051809103902060000160008282546105299190610bfb565b925050819055505b603260008b848151811061054857610547610b9d565b5b602002602001015160405161055d9190610a82565b9081526020016040518091039020600101600082825461057d9190610bfb565b9250508190555089828151811061059757610596610b9d565b5b60200260200101516040516105ac9190610a82565b60405180910390207fc0df2098cb1cf98d30ebdf944a4cfb08cff19a236009f2803deebc5e61c2c8ab60008c85815181106105ea576105e9610b9d565b5b60200260200101516040516105ff9190610a82565b90815260200160405180910390206001015460405161061e9190610801565b60405180910390a250808061063290610c51565b9150506103ff565b505050505050505050565b6000604051905090565b600080fd5b600080fd5b600080fd5b600080fd5b6000601f19601f8301169050919050565b7f4e487b7100000000000000000000000000000000000000000000000000000000600052604160045260246000fd5b6106ac82610663565b810181811067ffffffffffffffff821117156106cb576106ca610674565b5b80604052505050565b60006106de610645565b90506106ea82826106a3565b919050565b600067ffffffffffffffff82111561070a57610709610674565b5b61071382610663565b9050602081019050919050565b82818337600083830152505050565b600061074261073d846106ef565b6106d4565b90508281526020810184848401111561075e5761075d61065e565b5b610769848285610720565b509392505050565b600082601f83011261078657610785610659565b5b813561079684826020860161072f565b91505092915050565b6000602082840312156107b5576107b461064f565b5b600082013567ffffffffffffffff8111156107d3576107d2610654565b5b6107df84828501610771565b91505092915050565b6000819050919050565b6107fb816107e8565b82525050565b600060208201905061081660008301846107f2565b92915050565b600060408201905061083160008301856107f2565b61083e60208301846107f2565b9392505050565b60008115159050919050565b61085a81610845565b82525050565b60006020820190506108756000830184610851565b92915050565b600067ffffffffffffffff82111561089657610895610674565b5b602082029050602081019050919050565b600080fd5b60006108bf6108ba8461087b565b6106d4565b905080838252602082019050602084028301858111156108e2576108e16108a7565b5b835b8181101561092957803567ffffffffffffffff81111561090757610906610659565b5b8086016109148982610771565b855260208501945050506020810190506108e4565b5050509392505050565b600082601f83011261094857610947610659565b5b81356109588482602086016108ac565b91505092915050565b60008060006060848603121561097a5761097961064f565b5b600084013567ffffffffffffffff81111561099857610997610654565b5b6109a486828701610933565b935050602084013567ffffffffffffffff8111156109c5576109c4610654565b5b6109d186828701610933565b925050604084013567ffffffffffffffff8111156109f2576109f1610654565b5b6109fe86828701610771565b9150509250925092565b600081519050919050565b600081905092915050565b60005b83811015610a3c578082015181840152602081019050610a21565b83811115610a4b576000848401525b50505050565b6000610a5c82610a08565b610a668185610a13565b9350610a76818560208601610a1e565b80840191505092915050565b6000610a8e8284610a51565b915081905092915050565b600082825260208201905092915050565b7f4f6e6c7920746865206173736f636961746520656469746f722063616e20636160008201527f6c6c20746869732066756e6374696f6e2e000000000000000000000000000000602082015250565b6000610b06603183610a99565b9150610b1182610aaa565b604082019050919050565b60006020820190508181036000830152610b3581610af9565b9050919050565b7f5945530000000000000000000000000000000000000000000000000000000000600082015250565b6000610b72600383610a13565b9150610b7d82610b3c565b600382019050919050565b6000610b9382610b65565b9150819050919050565b7f4e487b7100000000000000000000000000000000000000000000000000000000600052603260045260246000fd5b7f4e487b7100000000000000000000000000000000000000000000000000000000600052601160045260246000fd5b6000610c06826107e8565b9150610c11836107e8565b9250827fffffffffffffffffffffffffffffffffffffffffffffffffffffffffffffffff03821115610c4657610c45610bcc565b5b828201905092915050565b6000610c5c826107e8565b91507fffffffffffffffffffffffffffffffffffffffffffffffffffffffffffffffff821415610c8f57610c8e610bcc565b5b600182019050919050565b6000610ca5826107e8565b9150610cb0836107e8565b9250817fffffffffffffffffffffffffffffffffffffffffffffffffffffffffffffffff0483118215151615610ce957610ce8610bcc565b5b828202905092915050565b7f4e487b7100000000000000000000000000000000000000000000000000000000600052601260045260246000fd5b6000610d2e826107e8565b9150610d39836107e8565b925082610d4957610d48610cf4565b5b828204905092915050565b6000610d5f826107e8565b9150610d6a836107e8565b925082821015610d7d57610d7c610bcc565b5b82820390509291505056fea26469706673582212206062d76cacc2c2596b1c2dfd489e9cc05554393a2c939f1b055bc19260879b9f64736f6c63430008090033",
  "linkReferences": {},
  "deployedLinkReferences": {}
}